:020000040800F2
:10000000B85F00209D010008CD030008CF03000861
:10001000D3030008D7030008DB030008000000003A
:10002000000000000000000000000000DF030008E6
:10003000E103000800000000E3030008E5030008F6
:10004000B7010008B7010008B7010008B7010008B0
:10005000B7010008B7010008B7010008B7010008A0
:10006000B7010008B7010008B7010008B701000890
:10007000B7010008B7010008B7010008B701000880
:10008000B7010008B7010008B7010008B701000870
:10009000B7010008B7010008B7010008B701000860
:1000A000B7010008B7010008B7010008B701000850
:1000B000B701000807340108B7010008B7010008BC
:1000C000B7010008B7010008B7010008B701000830
:1000D000B7010008B7010008DF360108133A01082C
:1000E000B7010008B7010008B7010008B701000810
:1000F000B7010008B7010008B7010008B701000800
:10010000B7010008B70100083D350108B701000834
:10011000B7010008B7010008B7010008B7010008DF
:10012000B7010008B7010008B7010008B7010008CF
:10013000B7010008B7010008B7010008B7010008BF
:10014000B7010008B7010008B7010008B7010008AF
:10015000B7010008B7010008B7010008B70100089F
:10016000B7010008B7010008B7010008B70100088F
:10017000B7010008B7010008B7010008B70100087F
:10018000B7010008B7010008DFF80CD022F01AFF11
:10019000004800472F580008B85F002006488047F5
:1001A00006480047FEE7FEE7FEE7FEE7FEE7FEE75C
:1001B000FEE7FEE7FEE7FEE79B0200088901000874
:1001C0000CB50020019000907548006840F4803024
:1001D0007349086000BF7248006800F40030009066
:1001E0000198401C0190009818B90198B0F5A04FF3
:1001F000F1D16B48006810F4003F02D0012000905C
:1002000001E0002000900098012845D1644840306A
:10021000006840F0805062494031086061480068E1
:1002200040F440405F4908605D48083000685C4920
:10023000083108600846006840F40040086008463D
:10024000006840F4A05008605748091F0860081F64
:10025000006840F08070091F086000BF50480068C7
:1002600010F0007FFAD040F20570504908604C4809
:100270000830006820F0030049490831086008464A
:10028000006840F00200086000BF45480830006880
:1002900000F00C000828F8D10CBD10B544480068E7
:1002A00040F47000424908603D48006840F0010099
:1002B0003B49086000203A49083108603848006826
:1002C0003C490840364908603B48091D0860081F42
:1002D000006820F48020091F0860002030490C319C
:1002E0000860FFF76DFF4FF000603149803908600A
:1002F00010BD70B500200022022300240221284DE9
:1003000008352D6805F00C0020B1042806D0082817
:1003100034D107E0294D2A4E356033E0294D284E6F
:1003200035602FE01E4D2D1D2D68C5F380541C4DEA
:100330002D1D2D6805F03F0154B1224DB5FBF1F59F
:10034000174E361D3668C6F3881605FB06F209E01F
:100350001A4DB5FBF1F5124E361D3668C6F38816F8
:1003600005FB06F20E4D2D1D2D68C5F301456D1CD4
:100370006B00B2FBF3F5124E356003E00F4D104EEB
:10038000356000BF00BF064D08352D68C5F3031565
:100390000D4E705D0A4D2D68C540094E356070BD2B
:1003A000003802400070004019544007003C0240F1
:1003B00088ED00E0FFFFF6FE103000240024F4007A
:1003C0000000002040787D0104000020704700BF3D
:1003D000FEE700BFFEE700BFFEE700BFFEE7704795
:1003E0007047704710B505F079FA10BD33490143E5
:1003F000334A1160704770B5002100230F22C47882
:1004000024B32F4C246804F4E064C4F5E064C4F31E
:100410000721C1F10404E3B20A4144789C40E1B2EF
:100420008478144021430C07210E264C0578615531
:10043000047804F01F050124AC4005786D114FF0DD
:10044000E02606EB8505C5F8004109E0047804F0D4
:100450001F040125A5401C4C0678761144F826504F
:1004600070BD1A4A0A400243154B1B1F1A607047A1
:1004700039B1134A121D12680243114B1B1D1A6039
:1004800006E00F4A121D126882430D4B1B1D1A60B5
:100490007047042808D14FF0E021096941F00401B8
:1004A0004FF0E022116107E04FF0E021096921F0EF
:1004B00004014FF0E0221161704700000000FA05CE
:1004C0000CED00E000E400E080E100E080FFFF1FB1
:1004D00010B504469848844208D10121084600F02E
:1004E00086FB0021012000F082FB76E093488442E5
:1004F00008D10121022000F07AFB0021022000F047
:1005000076FB6AE08E48844208D10121042000F085
:100510006EFB0021042000F06AFB5EE08948844203
:1005200008D10121082000F062FB0021082000F022
:100530005EFB52E08448844208D10121102000F083
:1005400056FB0021102000F052FB46E07F48844219
:1005500008D10121202000F04AFB0021202000F0DA
:1005600046FB3AE07A48844208D10121402000F05D
:100570003EFB0021402000F03AFB2EE0754884420B
:1005800008D10121802000F032FB0021802000F002
:100590002EFB22E07048844208D10121801500F032
:1005A00026FB0021A01500F022FB16E06B488442D8
:1005B00008D10121401500F01AFB0021601500F060
:1005C00016FB0AE06648844207D10121001500F0BD
:1005D0000EFB0021201500F00AFB10BDF0B50A4605
:1005E00000210023002400BF3DE0012505FA01F3AE
:1005F000156805EA03049C4234D105684F000326C0
:10060000BE40B543056015794E00B54006683543D8
:1006100005601579012D02D01579022D16D1856856
:100620004F000326BE40B543856055794E00B54066
:10063000866835438560456801268E40B543456030
:10064000456896798E40B6B235434560C5684F001F
:100650000326BE40B543C560D5794E00B540C66897
:100660003543C560491C1029BFD3F0BD4FF6FF715B
:1006700001600021017141718171C171704708B53C
:100680004FF480320092009A0A430092009AC261AD
:10069000C161009AC261C2690092C269009208BD3C
:1006A0000246002013690B4201D0012000E0002027
:1006B00070470146086980B27047024600205369BE
:1006C0000B4201D0012000E000207047014648693C
:1006D00080B2704701837047418370470AB101833C
:1006E00000E0418370474161704742694A4042617E
:1006F0007047F0B5002300244D07ED0E02FA05F314
:10070000CE1000F1200555F826504E07F70E0F26A3
:10071000BE40B543CF1000F1200646F82750CE105A
:1007200000F1200555F8265045EA0304CE1000F1EB
:10073000200545F82640F0BD0000024000040240BC
:1007400000080240000C0240001002400014024069
:1007500000180240001C0240002002400024024019
:1007600000280240F948006840F00100F74908609D
:100770000020F64908310860F4480068F449084050
:10078000F2490860F348091D0860F348EF498431D5
:100790000860F0481038091D0860EC48006820F433
:1007A0008020EA4908600020E8490C310860E749E8
:1007B0008C31086070470021E44A921C1170114688
:1007C0000870704710B501460022002300204A112E
:1007D000012A02D1DD4C236808E0022A03D1DB4C58
:1007E0007034236802E0D94C7434236801F01F028E
:1007F000012494401C4201D0012000E0002010BDE3
:1008000038B5002000900024002500BF3120FFF7FC
:10081000D9FF05460098401C00900098B0F5A04F05
:1008200001D0002DF2D03120FFF7CCFF08B1012418
:1008300000E00024204638BD01460020C34A10686D
:1008400020F0F80040EAC10010607047C34908601A
:1008500070470021BD4A703211701170012802D01A
:1008600004280AD104E00121B84A7032117005E071
:100870000521B64A7032117000E000BF00BF70471A
:10088000B7490860704770B5049C41EA821501269B
:10089000C6EB530645EA0645054345EA0465AB4EFB
:1008A000361D356070BDAD4908667047820142EA69
:1008B0000172A64B84331A607047A8498866704756
:1008C00010B5830143EA016343EA02739F4C883405
:1008D000236010BDA14908677047A049C8647047EC
:1008E00002460020994B0833186820F0EC6042EA79
:1008F00001031843954B08331860704702460020E7
:10090000924B0833186820F0784042EA01031843FC
:100910008E4B083318607047014600208B4A08321E
:10092000106820F0030008431060704787480830C3
:10093000006800F00C00704701460020834A08322E
:10094000106820F0F0000843106070470146002056
:100950007E4A0832106820F4E05008431060704767
:1009600001460020794A0832106820F4604040EACD
:10097000C10010607047F0B500210022002402255C
:1009800000260223714F08373F6807F00C0121B1A0
:10099000042905D0082937D105E0724F076036E0F9
:1009A000714F076033E0694F3F1D3F68C7F38056C2
:1009B000664F3F1D3F6807F03F036EB16A4FB7FBBC
:1009C000F3F7DFF888C10CF1040CDCF800C0CCF3BD
:1009D000881C07FB0CF40CE0624FB7FBF3F7DFF861
:1009E0006CC10CF1040CDCF800C0CCF3881C07FBD4
:1009F0000CF4564F3F1D3F68C7F301477F1C7D0035
:100A0000B4FBF5F7076002E0564F076000BF00BF78
:100A10004E4F08373F6807F0F0010909534F7A5CE1
:100A20000768D7404760494F08373F6807F4E051EF
:100A3000890A4E4F7A5C4768D7408760434F083732
:100A40003F6807F46041490B484F7A5C4768D740DC
:100A5000C760F0BD002100F44072B2F5407F0AD1BA
:100A60003A4A0832116821F4F811414A0240114310
:100A7000364A08321160354A70321268C0F30B03EF
:100A80001A43324B70331A60704735494439086055
:100A900070473349403908607047364908607047ED
:100AA00001460020294A8C32106820F01F004A1E9F
:100AB0001043264A8C321060704701460020234ABA
:100AC0008C32106820F4F8504A1E40EA02201F4A77
:100AD0008C3210607047014600201C4A8C3210682E
:100AE00020F4401008431060704701460020174A68
:100AF0008C32106820F440000843106070470146B3
:100B00000020124A8C32106820F4403008431060F4
:100B1000704719490860704739B10C4A3032126881
:100B200002430A4B30331A6006E0084A303212683A
:100B30008243064B30331A607047F9B1034A3432AE
:100B400012680243014B34331A601CE00038024043
:100B5000FFFFF6EA1030002400300020000047427A
:100B6000800E47420024F40040787D0114000020EC
:100B7000FFFCFF0F5C014742E01147428F4A1268B9
:100B800082438E4B1A60704739B18C4A121D12682D
:100B900002438A4B1B1D1A6006E0884A121D126828
:100BA0008243864B1B1D1A60704739B1834A0C3251
:100BB00012680243814B0C331A6006E07F4A0C3204
:100BC000126882437D4B0C331A60704739B17B4AFF
:100BD000103212680243794B10331A6006E0774AEC
:100BE000103212688243754B10331A60704739B166
:100BF000724A243A12680243704B243B1A6006E0A2
:100C00006E4A243A126882436C4B243B1A60704748
:100C100039B16A4A203A12680243684B203B1A6095
:100C200006E0664A203A12688243644B203B1A6011
:100C3000704739B1614A1C3A126802435F4B1C3B52
:100C40001A6006E05D4A1C3A126882435B4B1C3B0B
:100C50001A60704739B1594A143A12680243574B27
:100C6000143B1A6006E0554A143A12688243534B0B
:100C7000143B1A60704739B1504A103A1268024367
:100C80004E4B103B1A6006E04C4A103A1268824301
:100C90004A4B103B1A60704739B1484A1C321268FF
:100CA0000243464B1C331A6006E0444A1C32126869
:100CB0008243424B1C331A60704739B13F4A20329D
:100CC000126802433D4B20331A6006E03B4A203253
:100CD00012688243394B20331A60704739B1374A62
:100CE000243212680243354B24331A6006E0334A3B
:100CF000243212688243314B24331A60704739B171
:100D00002E4A2C32126802432C4B2C331A6006E018
:100D10002A4A2C3212688243284B2C331A607047BF
:100D200039B1264A303212680243244B30331A60FC
:100D300006E0224A303212688243204B30331A6078
:100D40007047012808D11D493C31096841F008016C
:100D50001A4A3C32116007E018493C31096821F019
:100D60000801164A3C321160704739B1134A273ADC
:100D700012780243114B273B1A7006E00F4A273ABC
:100D8000127882430D4B273B1A7070470B48403056
:100D9000006840F0807009494031086070470146A2
:100DA0000020064A283A12680A4201D0012000E0D9
:100DB00000207047014926390870704734380240D6
:100DC00010B50446FA48844208D101218014FFF787
:100DD00052FF0021A014FFF74EFF3CE0F54884428B
:100DE00008D101210014FFF735FF00212014FFF77F
:100DF00031FF30E0F048844208D10121C013FFF7F1
:100E000029FF0021E013FFF725FF24E0EB4884428F
:100E100008D101214014FFF72EFF00216014FFF7D5
:100E20002AFF18E0E648844209D101210805FFF7AE
:100E300022FF00214FF48010FFF71DFF0BE0E14877
:100E4000844208D101214805FFF715FF00214FF426
:100E50000010FFF710FF10BD10B50022028802F449
:100E600041520B884C8823438C882343CC882343EE
:100E70000C8923434C8923438C892343CC89234306
:100E80001A430280838B4FF2FF74234083830B8AC3
:100E9000038210BD2DE9F04F0025022300244FF0FE
:100EA000010900220026002794469046B0F81CA0B5
:100EB0004FF2400B0AEA0B0AA0F81CA04FF0020AFE
:100EC000A0F820A0858BD1F808A0BAF1020F01D1BB
:100ED00000BF80E0B1F804A0BAF1000F02D14FF0DA
:100EE000010901E04FF00209DFF8DCA2DAF800A006
:100EF0001AF4000F09D0DFF8D0A2DAF800A02AF423
:100F0000000ADFF8C4B2CBF800A0DFF8BCA20AF1F7
:100F10007C0ADAF800A0CAF3881CDFF8ACA20AF158
:100F20007C0ADAF800A0CAF30278DFF89CA2AAF1E2
:100F3000040ADAF800A00AF03F07DFF88CA2AAF151
:100F4000040ADAF800A00AF4800ABAF5800F08D182
:100F5000DFF878A2BAFBF7FA0AFB0CFABAFBF8F64C
:100F600007E0DFF86CA2BAFBF7FA0AFB0CFABAFB4F
:100F7000F8F6B1F806A0BAF5007F0ED14FEA162AAE
:100F80000AEB8A0A4FEA4A0AD1F808B0BAFBFBFA20
:100F90000AF1050A1FFA8AF20FE04FEA491AB6FB76
:100FA000FAFA0AEB8A0A4FEA4A0AD1F808B0BAFB01
:100FB000FBFA0AF1050A1FFA8AF24FF00A0AB2FB9D
:100FC000FAF202F00104A2EB040ACAF34F034FF64F
:100FD000FF7A0AEA0424022B01DBFF2B01DD022346
:100FE0000024B1F806A04AEA040A4AEA030AA0F873
:100FF00020A0B1F804A0B1F80CB04AEA0B0AB1F88D
:1010000002B04AEA0B0AB1F800B04AEA0B0A4AF405
:10101000006A4AEA05058583BDE8F08F002101805A
:1010200041808180C180018141818181C18107210D
:10103000018270470021018041808180C1800221AE
:10104000816000218181704721B1028842F0400215
:10105000028004E002884FF6BF731A400280704796
:1010600021B1828B42F48062828304E0828B4FF64E
:10107000FF331A408283704702884FF2FF731A4091
:10108000028002880A4302807047B1F5804F04D184
:10109000028842F48042028004E002884BF6FF732B
:1010A0001A4002807047A1F57E42FF3A04D00288C0
:1010B00042F48072028004E002884FF6FF631A4017
:1010C0000280704721B1828842F00402828004E0ED
:1010D00082884FF6FB731A408280704721B1828864
:1010E00042F01002828004E082884FF6EF731A40CB
:1010F0008280704730B500220023848B4FF2400578
:101100002C40848302240484828B0C88B4F5007FF5
:1011100001D00C8814B94FF4807308E00C88B4F542
:10112000407F03D00C88B4F5807F00D100238C88E9
:101130008D892C434D882C431C4344F40064224386
:10114000828330BD0146888970478181704721B113
:10115000028842F40052028004E002884DF6FF73D8
:101160001A4002807047018841F480510180704725
:1011700002460020012901D0108B00E0908A7047C0
:101180000146088A70471AB183880B43838002E0C6
:1011900083888B438380704730B5002400230C1173
:1011A0000125A540ABB2AAB185881D43858014E016
:1011B0000030014000380040003C00400034014055
:1011C00000500140005401400838024040787D0141
:1011D0000024F40085889D43858030BD02460020B0
:1011E00013890B4201D0012000E000207047CA4360
:1011F00002817047F0B5024600200024002300253C
:1012000001F00F070126BE40B4B20B1101269E402B
:10121000B3B2968806EA03051689264202D00DB1BC
:10122000012000E00020F0BD10B5002201F00F0405
:101230000123A3409AB2D343038110BD10B50446E5
:10124000FE48844208D101210846FFF714FD002121
:101250000120FFF710FD9DE0B4F1804F08D101217E
:101260000846FFF7F7FC00210120FFF7F3FC91E0AF
:10127000F348844208D101210220FFF7EBFC002152
:101280000220FFF7E7FC85E0EE48844208D1012107
:101290000420FFF7DFFC00210420FFF7DBFC79E0EE
:1012A000E948844208D101210820FFF7D3FC00213E
:1012B0000820FFF7CFFC6DE0E448844208D101210B
:1012C0001020FFF7C7FC00211020FFF7C3FC61E0EE
:1012D000DF48844208D101212020FFF7BBFC002118
:1012E0002020FFF7B7FC55E0DA48844208D10121FD
:1012F0000220FFF7C0FC00210220FFF7BCFC49E000
:10130000D548844209D101210804FFF7B4FC00212B
:101310004FF48030FFF7AFFC3CE0D048844209D165
:1013200001214804FFF7A7FC00214FF40030FFF72C
:10133000A2FC2FE0CA48844209D101218804FFF7AA
:101340009AFC00214FF48020FFF795FC22E0C5486D
:10135000844208D101214020FFF77CFC002140207D
:10136000FFF778FC16E0C048844208D101218020B4
:10137000FFF770FC00218020FFF76CFC0AE0BB48FF
:10138000844207D101218015FFF764FC0021A015DC
:10139000FFF760FC10BD00220288A84B98420ED0D7
:1013A000AC4B98420BD0B0F1804F08D0A44B984280
:1013B00005D0A44B984202D0A34B984204D14FF6DB
:1013C0008F731A404B881A43A04B984207D0A04B0A
:1013D000984204D04FF6FF431A400B891A4302800B
:1013E0004B68C3620B880385944B984202D0994B9B
:1013F000984201D18B7A03860123838270474FF094
:10140000FF3141600021018001814180817270477C
:101410000185828270470A46002101884FF68F734A
:10142000194011430180704741627047C1627047A3
:101430000146486A70470146088D704721B102880D
:1014400042F00202028004E002884FF6FD731A4067
:101450000280704721B1028842F00402028004E059
:1014600002884FF6FB731A400280704721B1028850
:1014700042F08002028004E002884FF67F731A4037
:101480000280704702884FF6F7731A400280028884
:101490000A430280704702884FF6FF431A400280D9
:1014A00002880A430280704721B1028842F001029B
:1014B000028004E002884FF6FE731A4002807047F3
:1014C00070B5002400220023058C4FF6FE763540CF
:1014D0000584028C8388048B4FF68F752C40B51ED3
:1014E0002C400D882C43751E2A408D892A434D8837
:1014F0002A43524DA84202D0564DA84213D14FF66E
:10150000F7752A40CD892A434FF6FB752A408D880E
:101510002A434FF6FF652B404FF6FF552B400D8AAF
:101520002B434D8A2B43838004838D68456302845B
:1015300070BD70B5002400220023058C4FF6EF76B5
:1015400035400584028C8388048B48F6FF752C4057
:101550004FF6FF452C400D884FF6FF7606EA05252D
:101560002C434FF6DF752A408D8906EA05152A437C
:101570004D8806EA05152A43304DA84202D0354D64
:10158000A8421DD14FF67F752A40CD894FF6FF76D0
:1015900006EA05152A434FF6BF752A408D8806EAEC
:1015A00005152A434FF6FF352B404FF2FF752B40B0
:1015B0000D8A06EA85052B434D8A06EA85052B43ED
:1015C000838004838D688563028470BD70B50024B8
:1015D00000220023058C4FF6FF6635400584028CFF
:1015E0008388848B4FF68F752C404FF6FC752C400A
:1015F0000D882C434FF6FF552A408D894FF6FF7614
:1016000006EA05252A434D8806EA05252A430B4D9F
:10161000A84202D00F4DA84238D14FF2FF752A40A0
:10162000CD894FF6FF7606EA05252A434FF6FF35AA
:101630002A408D8806EA05252A4319E0000001406A
:101640000004004000080040000C00400010004072
:1016500000140040000401400040014000440140EB
:101660000048014000180040001C004000200040DD
:101670004EF6FF752B404DF6FF752B400D8A06EA9E
:1016800005152B434D8A06EA05152B438380848379
:101690008D68C563028470BD70B5002200230024EC
:1016A000058C4EF6FF7635400584038C8488828B4A
:1016B00048F6FF752A404FF6FF452A400D884FF641
:1016C000FF7606EA05252A434DF6FF752B408D89E6
:1016D00006EA05352B434D8806EA05352B43FE4DBA
:1016E000A84202D0FD4DA84208D14BF6FF752C4010
:1016F0000D8A4FF6FF7606EA85152C438480828397
:101700008D680564038470BD002101804180818063
:1017100081608181C18101824182704770B5034639
:10172000002000241846183001258D40ACB21D8CD5
:10173000A5431D8409B108290AD100EB61000568A1
:101740004FF68F76354005600568154305600FE05C
:101750000D1FC5F34E052844056848F6FF76354051
:10176000056005684FF6FF7606EA022635430560F8
:1017700070BD4163704781637047C1637047016406
:1017800070470A460021018B4FF68F7319401143B1
:10179000018370470A460021018B48F6FF73194008
:1017A0004FF6FF7303EA02231943018370470A4689
:1017B0000021818B4FF68F7319401143818370474D
:1017C0000A460021818B48F6FF7319404FF6FF73DC
:1017D00003EA02231943818370470A460021018BE3
:1017E0004FF6F77319401143018370470A460021F1
:1017F000018B4FF2FF7319404FF6FF7303EA022388
:101800001943018370470A460021818B4FF6F77315
:1018100019401143818370470A460021818B4FF2A2
:10182000FF7319404FF6FF7303EA022319438183C4
:1018300070470A460021018B4FF6FB731940114394
:10184000018370470A460021018B4FF6FF33194090
:101850004FF6FF7303EA02231943018370470A46D8
:101860000021818B4FF6FB73194011438183704730
:101870000A460021818B4FF6FF3319404FF6FF7364
:1018800003EA02231943818370470A460021018B32
:101890004FF67F7319401143018370470A460021B8
:1018A000018BC1F30E014FF6FF7303EA02231943C4
:1018B000018370470A460021818B4FF67F731940E0
:1018C0001143818370470A460021818BC1F30E01C9
:1018D0004FF6FF7303EA02231943818370470A46D8
:1018E0000021018C4FF6FD731940114301847047AC
:1018F0000A460021018C4FF6F77319401143018409
:1019000070470A460021018C4FF6DF7319404FF6ED
:10191000FF7303EA02131943018470470A4600214A
:10192000018C4FF67F7319404FF6FF7303EA0213E1
:101930001943018470470A460021018C4FF6FF537A
:1019400019404FF6FF7303EA0223194301847047DD
:101950000A460021018C4FF2FF7319404FF6FF73C6
:1019600003EA02231943018470470A460021018CCF
:101970004DF6FF7319404FF6FF7303EA0233194324
:101980000184704730B5002301248C40A3B2048C3D
:101990009C430484048C02FA01F5ADB22C43048408
:1019A00030BD30B5002304248C40A3B2048C9C438A
:1019B0000484048C02FA01F5ADB22C43048430BDDA
:1019C000828B4FF2FF331A408283828B4FF6FF7374
:1019D00003EA01231A4382837047F0B50C4615468B
:1019E000002100220026078C4EF6FF7C07EA0C0738
:1019F0000784818B028C4FF6FF7707EA043640F6A6
:101A0000FF4739404FF6FF7707EA052739434FF67E
:101A1000FF7707EA0337394345F6FF773A4046F444
:101A200080573A4381830284F0BD828B4FF6F37373
:101A30001A408283828B0A4382837047F0B50C463A
:101A40001546002100220026078C4FF6FF6C07EA9E
:101A50000C070784818B028C4FF6FF7707EA042678
:101A60004FF60C7739404FF6FF7707EA03172F43FD
:101A700039434FF2FF573A4046F480773A43818327
:101A80000284F0BD028B4FF2FF331A400283028BB7
:101A90004FF6FF7303EA01231A4302837047F0B540
:101AA0000C461546002100220026078C4FF6EF7CDD
:101AB00007EA0C070784018B028C4FF6FF7707EAD1
:101AC000041640F6FF4739404FF6FF7707EA033721
:101AD00039434FF6FF7703E0000001400004014066
:101AE00007EA052739434FF65F773A4046F010077B
:101AF0003A4301830284F0BD028B4FF6F3731A4020
:101B00000283028B0A4302837047F0B50C461546E8
:101B100000210022068C4FF6FE773E400684018BA2
:101B2000028C4FF60C7631407E1C06EA03162E43DB
:101B300031434FF6F576324044F0010632430183DB
:101B40000284F0BD70B505460C46208850B9238943
:101B5000A28861882846FFF7D8FFE1882846FFF76A
:101B6000CBFF25E0208804280AD12389A288618838
:101B70002846FFF794FFE1882846FFF783FF17E028
:101B8000208808280AD12389A28861882846FFF77F
:101B900055FFE1882846FFF748FF09E02389A2881E
:101BA00061882846FFF719FFE1882846FFF708FFFC
:101BB00070BD002101804180012181800021C18010
:101BC000018170472DE9F04105460C4600260127AA
:101BD000608808B9022600E00026A088012801D10B
:101BE000022700E001272088A0B92389A288618804
:101BF0002846FFF78AFFE1882846FFF77DFF238903
:101C00003A4631462846FFF74AFFE1882846FFF763
:101C100039FF13E02389A28861882846FFF73FFF38
:101C2000E1882846FFF72EFF23893A4631462846A9
:101C3000FFF76BFFE1882846FFF75EFFBDE8F08104
:101C40000146486B70470146886B70470146C86B78
:101C500070470146086C70470A884B881A438B8886
:101C60001A43CB881A430B891A434B891A438B8931
:101C70001A43A0F8442070470021018041808180F0
:101C8000C180018141818181704731B1B0F8442028
:101C900042F40042A0F8442005E0B0F84420C2F32A
:101CA0000E02A0F84420704721B1828842F004025D
:101CB000828004E082884FF6FB731A40828070476E
:101CC00021B1828842F00102828004E082884FF6CE
:101CD000FE731A40828070471AB183890B43838157
:101CE00002E083898B43838170478182704702467B
:101CF0000020138A0B4201D0012000E00020704731
:101D0000CA430282704730B50246002000230024F7
:101D1000158A05EA0103958905EA010413B10CB19E
:101D2000012000E0002030BDCA430282704741EA32
:101D30000203A0F8483070471AB183890B438381AE
:101D400002E083898B438381704721B1828842F00E
:101D50000802828004E082884FF6F7731A4082807E
:101D6000704701894FF6F8721140018170470A46A9
:101D7000002101894FF68F7319401143018170478B
:101D800030B504460D4629462046FFF7F0FF20896E
:101D900040F00700208130BD2DE9F04104460D469A
:101DA00016461F46602D06D13B460122314620468D
:101DB000FFF775FE05E03B46012231462046FFF75E
:101DC000A4FE29462046FFF7D2FF208940F00700F5
:101DD0002081BDE8F08130B50C4600210189C9B2EF
:101DE0004FF6FF7505EA0325154325432943018175
:101DF00030BD2DE9F04105460E46174698460024B1
:101E000043463A4631462846FFF7E5FF2C894FF610
:101E1000F870044044F007044FF68F70044044F01B
:101E200070042C81BDE8F081F0B504460D461646DD
:101E30001F463B46324629462046FFF7CCFF208905
:101E400040F480402081F0BD82884FF68F731A40A5
:101E5000828082880A438280704702894FF6F87335
:101E60001A40028102890A430281704702894FF6B3
:101E70007F731A40028102890A4302817047F0B5DC
:101E80000C4615461E460021002200230189028BC4
:101E9000038C4FF6F877394021434FF6FC473A4020
:101EA00040F201173A434FF6DD773B404FF6FF779C
:101EB00007EA06172F433B43018102830384F0BDE9
:101EC00021B1828842F08002828004E082884FF64D
:101ED0007F731A4082807047A0F85010704700004E
:101EE00010B50446FA48844208D101211020FEF7BB
:101EF000C2FE00211020FEF7BEFE57E0F5488442E6
:101F000009D101214804FEF7A5FE00214FF400305D
:101F1000FEF7A0FE4AE0F048844209D1012188047E
:101F2000FEF798FE00214FF48020FEF793FE3DE07F
:101F3000EA48844209D10121C804FEF78BFE002142
:101F40004FF40020FEF786FE30E0E548844209D1D8
:101F500001210805FEF77EFE00214FF48010FEF7F8
:101F600079FE23E0DF48844208D101212020FEF7DA
:101F700082FE00212020FEF77EFE17E0DA48844230
:101F800009D101218807FEF765FE00214FF080404E
:101F9000FEF760FE0AE0D548844207D101214005E2
:101FA000FEF758FE00216005FEF754FE10BD2DE936
:101FB000FF4705460E460024A14600BFA046B08953
:101FC00000B100BF2C8A24F44054F08804432C82D2
:101FD000AC8941F20C608443B0883189084371892F
:101FE00008430443AC81AC8A24F44074B0890443B0
:101FF000AC826846FEF7BFFCB548854202D0B948BE
:10200000854202D1DDF80C9001E0DDF80890A88946
:1020100010F4004F08D009EBC90000EB091031683B
:102020004900B0FBF1F707E009EBC90000EB09102C
:1020300031688900B0FBF1F76420B7FBF0F00401D0
:102040002009642101FB1078A88910F4004F08D002
:10205000322000EBC800B0FBF1F000F007000443B1
:1020600008E0322000EB08106421B0FBF1F000F032
:102070000F0004432C81BDE8FF874FF41651016027
:1020800000218180C18001810C2141810021818159
:10209000704710B502460020108A20F470600B884B
:1020A0004C8823438C882343CC88234318431082D5
:1020B00010BD0021018041808180C180704721B125
:1020C000828942F40052828104E082894DF6FF73D6
:1020D0001A4082817047028B02F47F420283028B96
:1020E0000A430283704721B1828942F4004282810F
:1020F00003E08289C2F30E028281704721B1828A95
:1021000042F40062828204E0828A4FF2FF731A4036
:1021100082827047C1F30802828070470146888836
:10212000C0F308007047028A4FF6F0731A4002822B
:10213000028A0A430282704721B1828942F0020278
:10214000828104E082894FF6FD731A4082817047D4
:1021500082894FF2FF731A40828182890A43828109
:102160007047028A4FF6DF731A400282028A0A43DE
:102170000282704721B1028A42F48042028204E066
:10218000028A4BF6FF731A4002827047818941F040
:1021900001018181704721B1828A42F00802828266
:1021A00004E0828A4FF6F7731A4082827047028BEE
:1021B000D2B20283028B42EA01220283704721B12C
:1021C000828A42F02002828204E0828A4FF6DF7324
:1021D0001A408282704721B1828A42F010028282C4
:1021E00004E0828A4FF6EF731A4082827047828A37
:1021F0004FF6FB731A408282828A0A4382827047BA
:1022000021B1828A42F00202828204E0828A4FF681
:10221000FD731A40828270471AB1838A0B4383820E
:1022200002E0838A8B4383827047F0B50346002423
:10223000002600250020A1F510676A3F00D100BFED
:102240001846C1F3421401F01F06012707FA06F5EC
:10225000012C01D10C3004E0022C01D1103000E03F
:1022600014301AB107682F43076002E00768AF43D4
:102270000760F0BD02460020B1F5007F00D100BF2D
:1022800013880B4201D0012000E00020704701F4C8
:102290000072B2F5007F00D100BFCA4302807047D0
:1022A00070B502460024002300250020A1F5106629
:1022B0006A3E00D100BFC1F3421501F01F030126A1
:1022C00006FA03F3012D13D19689334017E000007D
:1022D000001001400044004000480040004C004015
:1022E000005000400014014000780040007C004095
:1022F000022D02D1168A334001E0968A33400C1237
:10230000012606FA04F41688344013B10CB10120FA
:1023100000E0002070BD10B500220023A1F510647C
:102320006A3C00D100BF0A1201249440A3B2DC43EE
:10233000048010BD704710B50446204611F08EFA97
:1023400010BD10B5044603E014F8010BFFF7F3FFCE
:1023500020780028F8D110BD70B504461CB98EA0B5
:10236000FFF7EFFF70BD2546E11704EB117108116F
:10237000FFF7F2FFE11704EB11710911A4EB011152
:102380000A290ADAE11704EB11710911A4EB011112
:102390003031C8B2FFF7CFFF0AE02546E11704EB62
:1023A00011710911A4EB01115731C8B2FFF7C3FF36
:1023B00000BFD7E770B504461CB978A0FFF7C1FF8E
:1023C00070BD254604EBD5714810FFF7F3FF04EB11
:1023D000D5714910A4EB41013031C8B2FFF7ABFF12
:1023E00000BFEDE770B5044604B970BD0A2094FB48
:1023F000F0F52846FFF7F6FF0A2094FBF0F100FB0A
:1024000011403030C5B22846FFF795FF00BFECE71A
:1024100010B52DED048BB0EE408AF0EE608A0024FA
:1024200051EC180B20F070FB04462046FFF7DAFF52
:102430002E20FFF780FF204620F048FB41EC100BD8
:10244000B0EE409AF0EE609A53EC182B51EC190B59
:1024500020F058FA41EC100BB0EE408AF0EE608AA2
:102460009FED4F0B53EC102B51EC180B20F04DFA55
:1024700041EC100BB0EE409AF0EE609A51EC190B63
:1024800020F042FB04462046FFF7ACFFBDEC048B76
:1024900010BD0FB4F0B52DED028B81B09FED420B56
:1024A000B0EE408AF0EE608A002500260027002466
:1024B00009A80090089C65E0207825285ED1601C62
:1024C0000446007864281FD00CDC582847D004DC70
:1024D00025284BD042284DD139E0622836D06328D8
:1024E00048D108E0662817D069280ED0732826D076
:1024F00078283FD132E0009810F8041BCFB200904A
:102500003846FFF718FF36E000BF009820C800905B
:102510002846FFF767FF2EE00098C01D20F0070057
:102520000090B0EC020BB0EE408AF0EE608A0090B2
:10253000B0EE480AF0EE680AFFF76AFF1BE0009869
:1025400040C800903046FFF7FCFE14E000BF009842
:1025500020C800902846FFF72DFF0CE000BF009830
:1025600020C800902846FFF7F7FE04E02520FFF77B
:10257000E2FE00E000BF00BF641C03E014F8010BA2
:10258000FFF7D9FE2078002896D1009001B0BDEC6D
:10259000028BF0BC5DF814FB307800003062000064
:1025A0000000000080842E410000000000000000B8
:1025B00010B540219E4820F0EAF89E4800210160B5
:1025C000416081604FF40C719B4820F0E0F84FF4BB
:1025D00070719A4820F0DBF87821994820F0D7F8FC
:1025E0004FF44771974820F0D2F810BD90487047DB
:1025F000904870479048704790487047904870479F
:10260000904870472DE9F04F2DED028B83B00446C2
:102610000F4691469A46A4F2BC701FFA80F800EE6D
:10262000108AB8EE400AF1EE000A80EE201AF0EEB1
:10263000418AB0EE680A21F04BFBF7EE000A30EE5B
:10264000200ABCEEC00A10EE100A80B20290781E7A
:102650007D4931F810004844019040F26D1008FBAC
:1026600000F002990844801F0199084485B2022FA6
:1026700014DCE11704EB91718910B4EB810105D1F1
:10268000642194FBF1F201FB124131B94FF4C8719E
:1026900094FBF1F201FB124101B100BF43F2A02013
:1026A000854201DD112612E042F65960854201DDC6
:1026B00010260CE042F65C10854201DD0F2606E094
:1026C00042F21450854201DD0E2600E000260F98EC
:1026D00031183C220E9802FB00104FF4616101FB9F
:1026E0000A0000EE100AB8EEC08A9FED580AB4EE58
:1026F000C08AF1EE10FA07DD681C85B29FED530A1F
:1027000038EE400AB0EE408A072095FBF0F081B227
:1027100010980180072095FBF0F100FB11501FFA83
:1027200080FB4B480BFB00F000EE100AB8EEC00A2D
:1027300030EE080A10EE101A084620F01DFA41EC9F
:10274000100B119880ED000B03B0BDEC028BBDE8BF
:10275000F08F70B52DED0A8B0446B0EE408AF0EE96
:10276000608A3C4904FB01F020F0B0F941EC100B09
:10277000B0EE40BAF0EE60BA53EC182B51EC1B0BE4
:1027800020F01CF841EC100BB0EE40AAF0EE60AA6D
:102790000025B4F5806F17DD40F24B50844201DC18
:1027A0000D2511E0B4F5BD6F01DC0E250CE040F203
:1027B0009E60844201DC0F2506E040F23A708442BC
:1027C00001DC102500E01125284620F090F941ECAD
:1027D000100BB0EE40BAF0EE60BA9FED1F0B53EC59
:1027E000102B51EC1A0B1FF0E9FF41EC100BB0EE6F
:1027F00040CAF0EE60CA53EC1B2B51EC1C0B20F0CE
:102800007EF841EC190B9FED160B53EC102B51EC9D
:10281000190B1FF0D3FF41EC100BB0EE40BAF0EEF5
:1028200060BA51EC1B0B20F08EF9BDEC0A8B70BD29
:10283000F801002038020020440200207804002023
:1028400038080020B0080020E861020800C0A8474E
:1028500080510100803A0900000000803DD5B2415E
:10286000000000000000E03F10B5ADF5207D0446FB
:102870004FF4FA7123A81FF08AFFB4F97200B4F97B
:102880007010B4F96E206C231B5BCDE91F32CDE9CB
:1028900021106A20005BB4F868106622125B642382
:1028A0001B5BCDE91B32CDE91D10B4F8620060213D
:1028B000095B5E22125BB4F85C30CDE91732CDE9DA
:1028C0001910D4E91123D4E91301CDE91323CDE97B
:1028D0001501D4E91531D4E90F02CDE91031129276
:1028E0000F90D4E90C31A26BE06ACDE90C310E9265
:1028F0000B90D4E90830A26AE168CDE90713CDE96D
:1029000009022089217EE37D2268CDE90331CDE9EA
:102910000520A17DA08AA27CCDE900200291238A16
:10292000FE4A4FF4FA7123A820F08CFB23A9FCA0E7
:10293000FFF7AFFDFBA0FFF7ACFD0DF5207D10BD4F
:1029400070B504460025641C02E014F8010B4540F4
:1029500020780028F9D12A46F3A1204620F086FBF2
:1029600070BD10B5A2B00446682108A81FF00FFF83
:1029700004F1150004F15C0104F14C0204F1290397
:10298000CDE90332CDE90510C01D2178423A631C20
:10299000CDE900210290E6A2662108A820F052FBB2
:1029A00008A8FFF7CDFF08A9DDA0FFF772FDDDA0A5
:1029B000FFF76FFD22B010BD10B52DED028BA6B054
:1029C000044668210CA81FF0E2FE94ED1A0A10EEEE
:1029D000101A084620F0D0F841EC100BB0EE408AF7
:1029E000F0EE608A04F17100411F04F1430204F12A
:1029F0003703CDE90832CDE90A108DED068B94F846
:102A00006600617A1A3A1B3BCDE90132CDE9031029
:102A100004F10A00631CCEA2662100900CA820F0ED
:102A200011FB0CA8FFF78CFF0CA9BDA0FFF731FD2F
:102A3000BCA0FFF72EFD26B0BDEC028B10BD2DE92A
:102A4000F0432DED108BA3B004464FF0000807278C
:102A5000782104A81FF09BFE781E06D10322C7A18F
:102A60000DF111001FF09EFE23E0B81E022806D1D2
:102A70000322C3A10DF111001FF094FE19E0F81E0E
:102A8000032806D10322BFA10DF111001FF08AFE19
:102A90000FE0381F042806D10322BBA10DF111005D
:102AA0001FF080FE05E00322B8A10DF111001FF018
:102AB00079FE207E20F01BF841EC100BB0EE40DADE
:102AC000F0EE60DA8DED02DBE07D0090A37DB0A238
:102AD0000B210DF11A0020F0B5FA208A642190FB39
:102AE000F1F201FB1209A07CCDE90009A38AACA296
:102AF00007210DF1250020F0A5FA56208DF81000D1
:102B000000208DF8190094F81C80B8F1000F7DD0DA
:102B100041208DF81000208C00F48060B0F5806FAB
:102B200003D102208DF8190002E001208DF8190070
:102B300094F87A008DF87600B7EE000A8DED1E0A43
:102B4000606D1FF0D4FF41EC100BB0EE40EAF0EEE8
:102B500060EA9FED970B53EC102B51EC1E0B1FF00E
:102B6000D4FE41EC100BB0EE40DAF0EE60DA9FEDEF
:102B7000920B53EC102B51EC1D0B1FF0C6FE41ECD9
:102B80001A0B9FED8F0B53EC102B51EC1A0B1FF00F
:102B90002EFF41EC1B0B9FED8C0B53EC102B51ECDB
:102BA0001A0B1FF0B2FE41EC1C0B606A1FF08EFF87
:102BB00041EC100BB0EE40EAF0EE60EA9FED840BC2
:102BC00053EC102B51EC1E0B1FF09FFE41EC100B31
:102BD000B0EE40DAF0EE60DA51EC1D0B1FF094FF1E
:102BE00006B230461FF072FF41EC100B8DED020B68
:102BF000606A1FF06BFF41EC100B8DED000B9FED39
:102C0000740B53EC102B9DED000B00E017E251EC20
:102C1000100B1FF07AFE41EC100BB0EE40FAF0EE14
:102C200060FA9DED020B53EC102B51EC1F0B1FF0C3
:102C300066FE41EC100BB0EE40EAF0EE60EA9FED6C
:102C4000660B53EC102B51EC1E0B1FF05EFE41EC9B
:102C5000100BB0EE40DAF0EE60DA21F02FF8B0EEB3
:102C6000408AF0EE608A301E01DB014600E04142FE
:102C70005A2907DB9FED5A0BB0EE408AF0EE608ACE
:102C80000020A0629FED580B53EC102B51EC180B59
:102C90001FF09AFF13D29FED520BB0EE408AF0EE78
:102CA000608A5A2E04DA002E02DB701C06B206E09F
:102CB00016F15A0F03DD002E01DA701E06B2A06A6B
:102CC0001FF004FF41EC100BB0EE40EAF0EE60EABA
:102CD0009FED3F0B53EC102B51EC1E0B1FF015FE1C
:102CE00041EC100BB0EE40DAF0EE60DA51EC1D0B67
:102CF0001FF00AFF05B228461FF0E8FE41EC100B5A
:102D0000B0EE40EAF0EE60EAA06A1FF0DFFE41ECB0
:102D1000100BB0EE40FAF0EE60FA69E004620208CF
:102D2000257300000A0000002A25303258000000F8
:102D3000242573524D432C25732C25632C25732C8D
:102D400025732C25732C25732C25732C2C00000047
:102D50002425734747412C25732C25732C25732C70
:102D6000256868752C253032642C252E32662C257A
:102D7000732C25732C25732C2573000047500000FD
:102D8000474C00004742000047410000474E00000A
:102D90002530326425303264252E33660000000071
:102DA0002530326425303264253032640000000062
:102DB0007B14AE47E17A843F000000000020AC4065
:102DC000BAFC87F4DBEF9C40FCA9F1D24D62503F86
:102DD00048AFBC9AF2D77A3E0000000000004E4097
:102DE0000000000000000000DC291DACFFFF4D408A
:102DF0001FED090B53EC102B51EC1F0B1FF085FD41
:102E000041EC100B8DED000B53EC1E2B9DED000BD8
:102E100051EC100B1FF073FD41EC100B8DED020B0C
:102E20001FED130B53EC102B9DED020B51EC100B0F
:102E30001FF06BFD41EC100BB0EE40DAF0EE60DA03
:102E400020F03CFFB0EE409AF0EE609A281E01DBC5
:102E5000014600E04142B4290BDB1FED1F0BB0EE31
:102E6000409AF0EE609A15F1B40F02DC05F5B470EB
:102E700005B21FED230B53EC102B51EC190B1FF077
:102E8000A3FE13D21FED2A0BB0EE409AF0EE609A2B
:102E9000B42D04DA002D02DB681C05B206E015F142
:102EA000B40F03DD002D01DA681E05B2642106FBB4
:102EB00001F01FF00BFE41EC100BB0EE40EAF0EE1B
:102EC00060EA53EC182B51EC1E0B1FF077FC41EC21
:102ED000100BB0EE40DAF0EE60DA606A002801DB39
:102EE0004E2000E0532002908DED00DBFEA20D216C
:102EF0000BA820F0A7F8642105FB01F01FF0E6FD08
:102F000041EC100BB0EE40EAF0EE60EA53EC192B06
:102F100051EC1E0B1FF052FC41EC100BB0EE40DAEE
:102F2000F0EE60DAA06A002801DB452000E05720BF
:102F300002908DED00DBECA20E210DF1390020F0A6
:102F400081F8E06A1FF0C2FD41EC100BB0EE40EAE0
:102F5000F0EE60EA1FED6A0B53EC102B51EC1E0BE8
:102F60001FF0D3FC41EC100BB0EE40DAF0EE60DA6B
:102F70004D2002908DED00DBDDA20C210DF147000C
:102F800020F060F8D4E90B12881A1FF09FFD41EC85
:102F9000100BB0EE40EAF0EE60EA1FED7B0B53EC55
:102FA000102B51EC1E0B1FF0B0FC41EC100BB0EEDF
:102FB00040DAF0EE60DA4D2002908DED00DBCCA21D
:102FC00009210DF1530020F03DF88DED00BBAFF26B
:102FD0003822082117A820F035F88DED00CBAFF28C
:102FE0004822082119A820F02DF8A06C1FF06EFDD2
:102FF00041EC100BB0EE40EAF0EE60EA1FED940BEE
:1030000053EC102B51EC1E0B1FF07FFC41EC100B0E
:10301000B0EE40DAF0EE60DA8DED00DBB6A207210B
:103020001BA820F00FF80522B4A11FA81FF0BAFBBF
:103030000522B2A10DF181001FF0B4FB21E00D22A9
:10304000AFF2F8210BA81FF0ADFB0E22AFF2043156
:103050000DF139001FF0A6FB0C22A8A10DF14700CD
:103060001FF0A0FB0822A5A117A81FF09BFB0822B8
:10307000A2A119A81FF096FB0722A0A11BA81FF070
:1030800091FB04A8FFF798FC04A8FFF76AFC23B0A3
:10309000BDEC108BBDE8F08300B59FB07C21684685
:1030A0001FF075FB684611F07BFD012802D000205F
:1030B0001FB000BD6846FFF7C2FC6846FFF7D4FBAF
:1030C0000120F5E710B52DED0A8B0446B0EE408ADD
:1030D000F0EE608A8A4904FB01F01FF0F7FC41EC36
:1030E000100BB0EE40CAF0EE60CA53EC182B51EC56
:1030F0001C0B1FF063FB41EC100BB0EE40AAF0EE8E
:1031000060AA1FEDC90BB0EE40BAF0EE60BAB4F59C
:10311000806F30DD40F24B50844206DC9FED790B2E
:10312000B0EE40BAF0EE60BA25E0B4F5BD6F06DC53
:103130009FED760BB0EE40BAF0EE60BA1BE040F2C5
:103140009E60844206DC9FED730BB0EE40BAF0EE59
:1031500060BA10E040F23A70844206DC9FED6F0BDB
:10316000B0EE40BAF0EE60BA05E09FED6E0BB0EE47
:1031700040BAF0EE60BA9FED6D0B53EC102B51ECA2
:103180001A0B1FF01BFB41EC100BB0EE40CAF0EE27
:1031900060CA53EC1B2B51EC1C0B1FF0B0FB41EC35
:1031A000190B9FED640B53EC102B51EC190B1FF016
:1031B00005FB41EC100BB0EE40CAF0EE60CA51ECDA
:1031C0001C0B1FF0C0FCBDEC0A8B10BD30B52DED03
:1031D000048BADB07C210EA81FF0D9FA0EA811F017
:1031E000DFFCBDF8404011981FF081FC41EC100B52
:1031F000B0EE409AF0EE609A9FED500B53EC102B1E
:1032000051EC190B1FF081FB41EC100BB0EE408A22
:10321000F0EE608AB0EE480AF0EE680A2046FFF74A
:1032200051FF0546342101A81FF0B1FA2B4645A2F3
:10323000322101A81FF006FF01A9AFF21C50FFF7D1
:1032400028F9AFF22050FFF724F92DB0BDEC048B24
:1032500030BD10B5CCB00446C8211AA81FF097FAAB
:10326000E08FA18F628F238FCDE91532CDE9171042
:10327000E08EA18ED4E90B23CDE91123CDE9131003
:10328000B4F92A00B4F92810B4F92620A38CCDE9AA
:103290000D32CDE90F10B4F91E00B4F91C20A3695A
:1032A000216ACDE90932CDE90B01207C638962698D
:1032B000E168CDE90531CDE90702207AE279A1790B
:1032C000A388CDE90131CDE90320A07800902388BF
:1032D000204AC8211AA81FF0B5FE1AA9AFF2C050A3
:1032E000FFF7D7F838E00000252E35662C2563005F
:1032F000252E31662C256300252E32660000000045
:10330000803A09000000000000002A400000000090
:1033100000002C400000000000002E4000000000D3
:10332000000030400000000000003140000000803C
:103330003DD5B241000000000000E03FFCA9F1D201
:103340004D62503F2450424C4B454E442C32353553
:103350002C25750090620208AFF23860FFF799F8EB
:103360004CB010BD30B5A1B00546002456E0C4EB0A
:10337000C40035F8200030B1C4EBC40005EB800078
:103380008089052800DA47E0642108A81FF0FFF9CA
:10339000C4EBC40005EB80008069C4EBC40105EBFD
:1033A0008101B1F91010C4EBC40205EB8202D27B9B
:1033B000C4EBC40305EB83035B69CDE90432CDE9BB
:1033C0000610C4EBC40005EB8000827BC4EBC40094
:1033D00005EB80008089C4EBC40105EB810189689D
:1033E000C4EBC40305EB83035B68CDE90031CDE991
:1033F0000202C4EBC40035F820302EA2642108A8D4
:103400001FF020FE08A9AFF2E860FFF742F8AFF224
:10341000EC60FFF73EF800BF601CC4B2142CA6DBC2
:1034200021B030BDF0B5ADF5217D05464FF42071DA
:1034300001A81FF0ACF92B8829A24FF4207101A834
:103440001FF000FE0446002624E006EBC60C2A1DF1
:1034500052F82C30C4F5207101AA10191FA21FF0D8
:10346000F1FD0444002711E006EBC60C2A1D02EB17
:103470008C02121D52F82730C4F5207101AA1019D0
:103480001BA21FF0DFFD0444781CC7B2082FEBDB42
:10349000701CC6B22888B042D7DC01A9AFF2807098
:1034A000FEF7F7FFAFF28470FEF7F3FF0DF5217D15
:1034B000F0BD00002450474E53532C31332C256867
:1034C000752C25752C25642C2568752C2568687548
:1034D0002C25752C256868642C2568642C257500BE
:1034E0002450534E53522C32312C25687500000065
:1034F0002C25640008B5014608880090BDF800003E
:1035000008BD01460868704708B501460888009064
:10351000BDF9000008BD01460868704708B501689C
:1035200000919DED000A08BD1CB50168009141683D
:1035300001919DED000B1CBD70B5002200240223FB
:1035400005E0C55C1544AAB2A518ACB25B1C8D1E83
:103550009D42F6DC42554D1E445570BDF0B5024605
:103560000026002700230025022405E0105D1844F2
:1035700083B2E81885B2641C881EA042F6DCDEB275
:10358000EFB2105CB04205D1481E105CB84201D1C8
:103590000120F0BD0020FCE72DE9F04180460C46FB
:1035A0001646B520207062206070002505E018F8EE
:1035B0000510A81C2154681CC5B2B542F7DB371DA5
:1035C00039462046FFF7B8FF3846BDE8F08110B510
:1035D000BEB000241822E8A138A81FF0BFF8ECA163
:1035E000D1E900208968CDE935203791EBA1D1E9F7
:1035F00000208968CDE932203491EBA207CA2FABB5
:1036000007C3ECA2D2E900109268CDE92D022C91FB
:10361000EBA207CA29AB07C3ECA2D2E9001092685B
:10362000CDE9270226913022EBA11AA81FF096F8C7
:103630002822F5A110A81FF091F8FDA207CA0DAB32
:1036400007C3FEA2D2E900109268CDE90B020A91ED
:10365000FDA2D2E900109268CDE908020791FDA20F
:10366000D2E900109268CDE905020491FCA207CAD4
:1036700001AB07C36421FD481FF089F81822FB49FC
:1036800038A8FFF789FF04460020F9490870A0B266
:10369000F64910F0A8FA64200FF0ACFFF448007867
:1036A00000F08000802803D1F2A0FEF743FE0CE07A
:1036B000EF4800780020B0F5807F03D1F3A0FEF73B
:1036C00039FE02E0F7A0FEF735FE4FF4E13010F0CE
:1036D00041F964200FF08EFF6421E4481FF057F891
:1036E0000C22E24935A8FFF757FF0446002C20D0F2
:1036F0000020DF490870A0B2DC4910F074FA6420A1
:103700000FF078FFDA48007800F08000802803D1BD
:10371000EBA0FEF70FFE0CE0D54800780020B0F5D6
:10372000807F03D1ECA0FEF705FE02E0F0A0FEF7DB
:1037300001FE6421CD481FF02AF80C22CB4932A8A3
:10374000FFF72AFF0446002C20D00020C84908704B
:10375000A0B2C64910F047FA64200FF04BFFC448EE
:10376000007800F08000802803D1E8A0FEF7E2FD99
:103770000CE0BF4800780020B0F5807F03D1E9A0BD
:10378000FEF7D8FD02E0EDA0FEF7D4FD6421B748B6
:103790001EF0FDFF0C22B5492FA8FFF7FDFE0446E1
:1037A000002C20D00020B2490870A0B2AF4910F020
:1037B0001AFA64200FF01EFFAD48007800F0800078
:1037C000802803D1E4A0FEF7B5FD0CE0A8480078FE
:1037D0000020B0F5807F03D1E5A0FEF7ABFD02E04D
:1037E000E9A0FEF7A7FD6421A0481EF0D0FF0C223F
:1037F0009E492CA8FFF7D0FE044604B300209C4944
:103800000870A0B2994910F0EEF964200FF0F2FEB2
:103810009748007800F08000802803D1E1A0FEF7EF
:1038200089FD0CE0924800780020B0F5807F03D13C
:10383000E2A0FEF77FFD02E0E6A0FEF77BFD64213B
:103840008A481EF0A4FF0C22884929A8FFF7A4FE8D
:10385000044604B3002086490870A0B2834910F0E2
:10386000C2F964200FF0C6FE8148007800F08000A5
:10387000802803D1DEA0FEF75DFD0CE07C480078D7
:103880000020B0F5807F03D1DFA0FEF753FD02E0FA
:10389000E3A0FEF74FFD642174481EF078FF0C2270
:1038A000724926A8FFF778FE044604B30020704949
:1038B0000870A0B26D4910F096F964200FF09AFEDE
:1038C0006B48007800F08000802803D1DBA0FEF771
:1038D00031FD0CE0664800780020B0F5807F03D110
:1038E000DCA0FEF727FD02E0E0A0FEF723FD642147
:1038F0005E481EF04CFF30225C491AA8FFF74CFED0
:10390000044604B300205A490870A0B2574910F089
:103910006AF964200FF06EFE5548007800F08000D0
:10392000802803D1D8A0FEF705FD0CE050480078B0
:103930000020B0F5807F03D1D9A0FEF7FBFC02E0A8
:10394000DDA0FEF7F7FC642148481EF020FF282286
:10395000464910A8FFF720FE04465CB10020444908
:103960000870A0B2414910F03EF964200FF042FE09
:103970003F48AFE1C4E10000060014000100000070
:10398000C008000000C201000700030000000000A2
:103990000601080001070001000000000601080000
:1039A00001220001000000000601080001360001AC
:1039B00000000000060108000135000100000000C1
:1039C00006010800012000010000000006010800B7
:1039D0000215000100000000063E2C00002020051A
:1039E00000081000010001010101030000000101B5
:1039F000030810000000010105000300010001019F
:103A0000060810000100010106242400FFFF040342
:103A100000000000163900000500FA00FA006400FA
:103A20002C01000000000000000000000000000069
:103A300006010800F0000000000000000601080078
:103A4000F00100000000000006010800F004000082
:103A50000000000006010800F00500000000000062
:103A600006010800F00800000000000038180020DF
:103A70006500002043666747507073204346475FE8
:103A80005052542041434B210000000043666747D9
:103A9000507073204346475F505254204E414B2193
:103AA0000000000043666747507073204346475F3D
:103AB000505254206E6F2072657370210000000018
:103AC00043666747507073204D53475F303130373E
:103AD0002041434B2100000043666747507073202C
:103AE0004D53475F30313037204E414B21000000AD
:103AF00043666747507073204D53475F303130370E
:103B0000206E6F2072657370210000004366674766
:103B1000507073204D53475F303132322041434B58
:103B20002100000043666747507073204D53475F84
:103B300030313232204E414B21000000436667474E
:103B4000507073204D53475F30313232206E6F20FA
:103B500072657370210000004366674750707320E0
:103B60004D53475F303133362041434B2100000035
:103B700043666747507073204D53475F303133368B
:103B8000204E414B21000000436667475070732070
:103B90004D53475F30313336206E6F20726573703E
:103BA0002100000043666747507073204D53475F04
:103BB000303133352041434B2100000043666747D5
:103BC000507073204D53475F30313335204E414B99
:103BD0002100000043666747507073204D53475FD4
:103BE00030313335206E6F20726573702100000014
:103BF00043666747507073204D53475F3031323012
:103C00002041434B210000004366674750707320FA
:103C10004D53475F30313230204E414B2100000080
:103C200043666747507073204D53475F30313230E1
:103C3000206E6F2072657370210000004366674735
:103C4000507073204D53475F303231352041434B24
:103C50002100000043666747507073204D53475F53
:103C600030323135204E414B21000000436667471A
:103C7000507073204D53475F30323135206E6F20C6
:103C800072657370210000004366674750707320AF
:103C90004D53475F474E53532041434B2100000093
:103CA00043666747507073204D53475F474E5353E9
:103CB000204E414B2100000043666747507073203F
:103CC0004D53475F474E5353206E6F20726573709C
:103CD00021000000007800F08000802803D1E9A0D6
:103CE000FEF728FB0CE0ED4800780020B0F5807F5F
:103CF00003D1EBA0FEF71EFB02E0EFA0FEF71AFBDC
:103D00006421F4481EF043FD0C22F2490DA8FFF790
:103D100043FC04460020E1490870A0B2ED490FF0D1
:103D200062FF64200FF066FCDC48007800F0800041
:103D3000802803D1E8A0FEF7FDFA0CE0D748007810
:103D40000020B0F5807F03D1EAA0FEF7F3FA02E08D
:103D5000EFA0FEF7EFFA0C22DE490AA8FFF71CFCE1
:103D600004460020CD490870A0B2DA490FF03BFFAD
:103D700064200FF03FFCC948007800F080008028E4
:103D800003D1EBA0FEF7D6FA0CE0C448007800207F
:103D9000B0F5807F03D1EDA0FEF7CCFA02E0F2A0EF
:103DA000FEF7C8FA0C22CB4907A8FFF7F5FB04463B
:103DB0000020BA490870A0B2C6490FF014FF642071
:103DC0000FF018FCB548007800F08000802803D17F
:103DD000EDA0FEF7AFFA0CE0B04800780020B0F597
:103DE000807F03D1EFA0FEF7A5FA02E0F4A0FEF772
:103DF000A1FA0C22B74904A8FFF7CEFB0446002025
:103E0000A6490870A0B2B3490FF0EDFE64200FF090
:103E1000F1FBA248007800F08000802803D1F0A0D8
:103E2000FEF788FA0CE09D4800780020B0F5807F0E
:103E300003D1F2A0FEF77EFA02E0F7A0FEF77AFACD
:103E40000C22A44901A8FFF7A7FB044600209349D0
:103E50000870A0B29F490FF0C6FE64200FF0CAFBA5
:103E60008E48007800F08000802803D1F2A0FEF791
:103E700061FA0CE0894800780020B0F5807F03D11A
:103E8000F4A0FEF757FA02E0F9A0FEF753FA3EB0AD
:103E900010BD0146FE4802680068401CFC4B1860DB
:103EA0008C48805C0870FB4800681A461268904293
:103EB00001D1012070470020FCE710B50020F64931
:103EC0000860F6490860F6490870F6490870F64936
:103ED0000860F649087040F22641F5481EF057FC8C
:103EE0000021F34880F8241440F22641F1481EF0E6
:103EF0004EFCF1480021018010BDEC48007870476D
:103F000010B50020E6490870E6490870E6490860E7
:103F1000E649087040F22641E5481EF038FC10BD25
:103F2000E649DD4A12688854DB490988491CC1F317
:103F30000901D94A1160704770B50646B41DFEF7F5
:103F400057FB05462046FFF7DCFA2860201DFFF7E7
:103F5000E2FA686004F10800FFF7D6FA00B228819F
:103F6000A07A6881002070BD2DE9F04FADF5317D5C
:103F70008346FEF73FFB00900BF106054FF42871D6
:103F800008A81EF004FC1C2101A81EF000FC4FF440
:103F90000C7100981EF0FBFB2846FFF7B2FAB090B8
:103FA0006E79182E01DA304600E01820064626B950
:103FB00000200DF5317DBDE8F08F00240835DAE1F1
:103FC000C4EBC40108AA02EB8101B09848602F78C5
:103FD0006878C4EBC40122F82100022F0BD1C4EB96
:103FE000C40008A931F8200000F59670C4EBC401A4
:103FF00022F8210038E0032F0CD1C4EBC40008A93B
:1040000031F8200000F5C870C4EBC40108AA22F8FA
:10401000210029E0062F0BD1C4EBC40008A931F818
:1040200020004030C4EBC40108AA22F821001BE0A4
:10403000042F0CD1C4EBC40008A931F8200000F50E
:10404000FA70C4EBC40108AA22F821000CE0052F85
:104050000AD1C4EBC40008A931F82000C030C4EB79
:10406000C40108AA22F82100A87800EB80004000D3
:10407000C4EBC40108AA02EB81018881E878C4EB93
:10408000C4011DE143666747507073204D53475F7D
:104090004E41562041434B210000000065000020A6
:1040A00043666747507073204D53475F4E4156201B
:1040B0004E414B210000000043666747507073205B
:1040C0004D53475F4E4156206E6F207265737021CD
:1040D00000000000381800204366674750707320C6
:1040E0004D53475F4747415F4F66662041434B2131
:1040F0000000000043666747507073204D53475FD0
:104100004747415F4F6666204E414B21000000004B
:1041100043666747507073204D53475F4747415F81
:104120004F6666206E6F207265737021000000007C
:1041300043666747507073204D53475F474C4C5F51
:104140004F66662041434B210000000043666747ED
:10415000507073204D53475F474C4C5F4F6666204D
:104160004E414B21000000004366674750707320AA
:104170004D53475F474C4C5F4F6666206E6F207211
:10418000657370210000000043666747507073201C
:104190004D53475F524D435F4F66662041434B216D
:1041A0000000000043666747507073204D53475F1F
:1041B000524D435F4F6666204E414B210000000088
:1041C00043666747507073204D53475F524D435FBE
:1041D0004F6666206E6F20726573702100000000CC
:1041E00043666747507073204D53475F5654475F8F
:1041F0004F66662041434B2100000000436667473D
:10420000507073204D53475F5654475F4F6666208A
:104210004E414B21000000004366674750707320F9
:104220004D53475F5654475F4F6666206E6F20724E
:10423000657370210000000043666747507073206B
:104240004D53475F5A44415F4F66662041434B21BF
:104250000000000043666747507073204D53475F6E
:104260005A44415F4F6666204E414B2100000000DA
:1042700043666747507073204D53475F5A44415F10
:104280004F6666206E6F207265737021000000001B
:10429000680000206C00002054000020580000201E
:1042A0005C0000205D000020600000206400002011
:1042B000EC0F00201214002070000020CC0B002016
:1042C00002EB8101C873281DFFF71EF900B2C4EB91
:1042D000C40108AA02EB81010882A81DFFF714F9A6
:1042E00000EB80004000C4EBC40108AA02EB81018E
:1042F000886005F10800FFF704F9814609F0070816
:10430000B8F1020F06DC0020C4EBC40108AA02EBDE
:1043100081014861B8F1040F16DB0F20C4EBC40122
:1043200008AA02EB81014861B8F1060F0CDBC4EB6F
:10433000C40008A901EB8000406940F01000C4EB04
:10434000C40102EB8101486109F00808B8F1080FC7
:1043500007D10120C4EBC40108AA02EB81018873D4
:1043600006E00020C4EBC40108AA02EB81018873B7
:10437000601C04B20C35B442FFF622AE701E0FFA78
:1043800080FA37E000242FE0601CC0EBC00008A9D1
:1043900001EB80008089C4EBC40108AA02EB810113
:1043A000898988421EDDC4EBC40002EB80011C2217
:1043B00001A81EF0D3F9621CC2EBC20208AB03EBEA
:1043C0008201C4EBC40203EB82001C221EF0C6F97A
:1043D000611CC1EBC10108AA02EB81001C2201A9EA
:1043E0001EF0BCF9601C04B25445CDDBAAF10100FB
:1043F0000FFA80FABAF1000FC4DC142E01DA30464D
:1044000000E01420064600240EE0C4EBC40208AB12
:1044100003EB8201C4EBC403009A02EB83001C226D
:104420001EF09CF9601C04B2B442EEDB0020C0E533
:1044300070B52DED088B0446FEF7D8F8054694EDCF
:10444000040A10EE101A08461EF096FB41EC100B01
:10445000B0EE40BAF0EE60BA20F076FCB0EE40AAC2
:10446000F0EE60AA9FEDFA0B53EC102B51EC1A0BF7
:104470001EF04BFA41EC100BB0EE409AF0EE609A51
:104480009FEDF50B53EC102B51EC190B1EF096F928
:1044900041EC100BB0EE408AF0EE608A51EC180B44
:1044A0001EF051FBA88694ED070A10EE101A08467C
:1044B0001EF062FB41EC100BB0EE40BAF0EE60BAB9
:1044C00020F042FCB0EE40AAF0EE60AA9FEDE00BB7
:1044D00053EC102B51EC1A0B1EF017FA41EC100B99
:1044E000B0EE409AF0EE609A9FEDDB0B53EC102B90
:1044F00051EC190B1EF062F941EC100BB0EE408A42
:10450000F0EE608A51EC180B1EF01DFBE88694ED6E
:10451000090A10EE101A08461EF02EFB41EC100B93
:10452000B0EE40BAF0EE60BA20F00EFCB0EE40AA59
:10453000F0EE60AA9FEDC60B53EC102B51EC1A0B5A
:104540001EF0E3F941EC100BB0EE409AF0EE609AE9
:104550009FEDC10B53EC102B51EC190B1EF02EF9F3
:1045600041EC100BB0EE408AF0EE608A51EC180B73
:104570001EF0E9FA288794ED0A0A10EE101A084690
:104580001EF0FAFA41EC100BB0EE40BAF0EE60BA51
:1045900020F0DAFBB0EE40AAF0EE60AA9FEDAC0B83
:1045A00053EC102B51EC1A0B1EF0AFF941EC100B31
:1045B000B0EE409AF0EE609A9FEDA70B53EC102BF3
:1045C00051EC190B1EF0FAF841EC100BB0EE408ADA
:1045D000F0EE608A51EC180B1EF0B5FA688794ED86
:1045E0000D0A10EE101A08461EF0C6FA41EC100B28
:1045F000B0EE40BAF0EE60BA20F0A6FBB0EE40AAF2
:10460000F0EE60AA9FED920B53EC102B51EC1A0BBD
:104610001EF07BF941EC100BB0EE409AF0EE609A80
:104620009FED8D0B53EC102B51EC190B1EF0C6F8BF
:1046300041EC100BB0EE408AF0EE608A51EC180BA2
:104640001EF081FAA88794ED0F0A10EE101A0846A2
:104650001EF092FA41EC100BB0EE40BAF0EE60BAE8
:1046600020F072FBB0EE40AAF0EE60AA9FED780B4E
:1046700053EC102B51EC1A0B1EF047F941EC100BC8
:10468000B0EE409AF0EE609A9FED730B53EC102B56
:1046900051EC190B1EF092F841EC100BB0EE408A71
:1046A000F0EE608A51EC180B1EF04DFAE887BDEC75
:1046B000088B70BD30B591B00546AC1D402101A8F6
:1046C0001EF065F82046FEF71CFF019020798DF85A
:1046D000080060798DF80900A0798DF80A00D4F8F7
:1046E0000700CDF80B00D4F80B00CDF80F00E07BED
:1046F0008DF8130004F11000FEF710FFB5EEC00AAC
:10470000F1EE10FA02D29FED560A03E004F1100018
:10471000FEF704FF8DED050A04F11400FEF7FEFE1E
:10472000B5EEC00AF1EE10FA02D29FED4D0A03E099
:1047300004F11400FEF7F2FE8DED060A04F11800F4
:10474000FEF7ECFEB5EEC00AF1EE10FA02D29FEDD4
:10475000440A03E004F11800FEF7E0FE8DED070ABD
:1047600004F11C00FEF7DAFEB5EEC00AF1EE10FA15
:1047700002D29FED3B0A03E004F11C00FEF7CEFEDF
:104780008DED080A04F12000FEF7C8FEB5EEC00A60
:10479000F1EE10FA02D29FED320A03E004F120009C
:1047A000FEF7BCFE8DED090A04F12400FEF7B6FE0B
:1047B000B5EEC00AF1EE10FA02D29FED290A03E02D
:1047C00004F12400FEF7AAFE8DED0A0A04F1280088
:1047D000FEF7A4FEB5EEC00AF1EE10FA02D29FED8C
:1047E000200A03E004F12800FEF798FE8DED0B0A85
:1047F00004F12C00FEF792FEB5EEC00AF1EE10FABD
:1048000002D29FED170A03E004F12C00FEF786FEAA
:104810008DED0C0A04F13000FEF780FEB5EEC00A03
:10482000F1EE10FA02D29FED0E0A03E004F130001F
:10483000FEF774FE8DED0D0A04F13400FEF76EFEF6
:10484000B5EEC00AF1EE10FA0CD29FED050A0DE0AC
:104850000000000000005940000000000000E03FA0
:104860000000000004F13400FEF758FE8DED0E0A42
:1048700004F13800FEF752FEB5EEC00AF1EE10FA70
:1048800002D21FED090A03E004F13800FEF746FEEC
:104890008DED0F0A04F13C00FEF740FEB5EEC00AB4
:1048A000F1EE10FA02D21FED120A03E004F13C000F
:1048B000FEF734FE8DED100A01A8FFF7B9FD0020C8
:1048C00011B030BD70B52DED0A8B0446FDF78EFE9C
:1048D000054660681EF0FAF841EC100BB0EE40CAD5
:1048E000F0EE60CA9FEDFE0B53EC102B51EC1C0B4D
:1048F0001EF00BF841EC100BB0EE40BAF0EE60BACF
:104900009FEDF90B53EC102B51EC1B0B1DF0FDFF31
:1049100041EC100BB0EE40AAF0EE60AA1FED340B94
:1049200053EC102B51EC1A0B1DF0EFFF41EC100B68
:10493000B0EE409AF0EE609A1FED390B53EC102B5D
:1049400051EC190B1DF03AFF41EC100BB0EE408A10
:10495000F0EE608A51EC180B1EF0D6F8E862A06801
:104960001EF0B4F841EC100BB0EE40CAF0EE60CA95
:104970009FEDDB0B53EC102B51EC1C0B1DF0C5FF16
:1049800041EC100BB0EE40BAF0EE60BA9FEDD60BE2
:1049900053EC102B51EC1B0B1DF0B7FF41EC100B2F
:1049A000B0EE40AAF0EE60AA1FED570B53EC102BAF
:1049B00051EC1A0B1DF0A9FF41EC100BB0EE409A20
:1049C000F0EE609A1FED5C0B53EC102B51EC190BC1
:1049D0001DF0F4FE41EC100BB0EE408AF0EE608A60
:1049E00051EC180B1EF090F82863BDEC0A8B70BDDB
:1049F00030B585B00546AC1D142168461DF0C7FED4
:104A00002046FEF77EFD0090201DFEF784FD0190FC
:104A100004F10800FEF77FFD029004F10C00FEF7A0
:104A200070FD039004F11000FEF76BFD04906846E2
:104A3000FFF748FF002005B030BDAD48704710B506
:104A40000346FFF7FAFF0246D87D05280EDB42F247
:104A50001071986A884209D21078401C1070107842
:104A6000642805DD10786438107001E000201070B3
:104A70001078052190FBF1F401FB140010B901201E
:104A8000507001E00020507010BD70B52DED068B08
:104A900088B00446FDF7AAFD05469FED960B8DED07
:104AA000060B402128461DF072FEA0882880A079C0
:104AB000A870E079A880207AA871607AE871A07A5D
:104AC00028722068E86006AA05ABA07A617ACDE971
:104AD0000232CDE90010237AE279A179A088FDF7AE
:104AE00091FDBDF814006881607D10F0010F01D0C8
:104AF000E07D2874E0696861A069A861206A1DF002
:104B0000E5FF41EC100BB0EE40AAF0EE60AA9FED7D
:104B10007B0B53EC102B51EC1A0B1DF0F6FE41EC05
:104B2000100BB0EE409AF0EE609A1FEDB50B53EC0F
:104B3000102B51EC190B1DF041FE41EC100BB0EEA7
:104B4000408AF0EE608A51EC180B1DF0DDFF00B2D8
:104B5000A883E06B1DF0BAFF41EC100BB0EE40AA49
:104B6000F0EE60AA9FED650B53EC102B51EC1A0B85
:104B70001DF0CBFE41EC100BB0EE409AF0EE609AC7
:104B80001FEDCB0B53EC102B51EC190B1DF016FE47
:104B900041EC100BB0EE408AF0EE608A51EC180B3D
:104BA0001DF0B2FF00B2E883206C1DF08FFF41ECD6
:104BB000100BB0EE40AAF0EE60AA9FED520B53EC42
:104BC000102B51EC1A0B1DF0A0FE41EC100BB0EEB7
:104BD000409AF0EE609A1FEDE20B53EC102B51EC73
:104BE000190B1DF092FE41EC100BB0EE408AF0EE76
:104BF000608A51EC180B1DF087FF2862A06A1DF037
:104C000076FF41EC100BB0EE40AAF0EE60AA9FEDEB
:104C10003B0B53EC102B51EC1A0B1DF076FE41ECC4
:104C2000100BB0EE409AF0EE609A1FEDF50B53ECCE
:104C3000102B51EC190B1DF0C1FD41EC100BB0EE27
:104C4000408AF0EE608A51EC180B1DF07CFFA884BE
:104C5000206B1DF03BFF41EC100BB0EE40AAF0EED4
:104C600060AA9FED260B53EC102B51EC1A0B1DF094
:104C70004CFE41EC100BB0EE409AF0EE609A9FEDC6
:104C8000230B53EC102B51EC190B1DF097FD41EC4D
:104C9000100BB0EE408AF0EE608A51EC180B1DF05C
:104CA00033FF00B2E884606B1DF010FF41EC100B85
:104CB000B0EE40AAF0EE60AA9FED100B53EC102B63
:104CC00051EC1A0B1DF021FE41EC100BB0EE409A96
:104CD000F0EE609A9FED0D0B53EC102B1AE00000E4
:104CE00095D626E80B2E113E0000004A78DEB14131
:104CF0007000002000000000000000009A999999BF
:104D00009999B93FF168E388B5F8E43E00000000E6
:104D10000000E03F51EC190B1DF050FD41EC100B71
:104D2000B0EE408AF0EE608A51EC180B1DF0ECFEFC
:104D300001B22985A06B1DF0C9FE41EC100BB0EE4D
:104D400040AAF0EE60AA1FED130B53EC102B51ECB0
:104D50001A0B1DF0DAFD41EC100BB0EE409AF0EEAC
:104D6000609A1FED160B53EC102B51EC190B1DF034
:104D700025FD41EC100BB0EE408AF0EE608A51EC5C
:104D8000180B1DF0C1FE01B269850020E86228639E
:104D900008B0BDEC068B70BD30B597B00546AC1DB4
:104DA0005C2168461DF0F3FC2046FEF7AAFB00904C
:104DB000201DFEF79FFBADF80400A0798DF80600DA
:104DC000E0798DF80700207A8DF80800607A8DF878
:104DD0000900A07A8DF80A00E07A8DF80B0004F142
:104DE0000C00FEF78EFB039004F11000FEF793FB1E
:104DF0000490207D8DF81400607D8DF81500A07D55
:104E00008DF81600E07D8DF8170004F11800FEF70C
:104E100082FB069004F11C00FEF77DFB079004F175
:104E20002000FEF778FB089004F12400FEF773FBE6
:104E3000099004F12800FEF764FB0A9004F12C00AD
:104E4000FEF75FFB0B9004F13000FEF764FB0C9063
:104E500004F13400FEF75FFB0D9004F13800FEF71B
:104E60005AFB0E9004F13C00FEF755FB0F9004F145
:104E70004000FEF750FB109004F14400FEF741FBA8
:104E8000119004F14800FEF73CFB129004F14C0035
:104E9000FEF730FBADF84C00D4F84E00CDF84E00D4
:104EA000B4F85200ADF8520004F15400FEF733FBA1
:104EB0001590A06D16906846FFF7E7FD6846FFF76E
:104EC000BEFD002017B030BD70B50446E078A17873
:104ED00000EB012540F22240015B2046FEF73EFB3D
:104EE00010B94FF0FF3070BDB5F5917F12D006DCE0
:104EF000A5F58070073809D019281BD116E0A5F553
:104F0000807035380ED0012814D107E02046FFF715
:104F100043FFE8E72046FFF76BFDE4E72046FFF795
:104F2000C9FBE0E72046FFF71FF8DCE72046FFF764
:104F300003F8D8E74FF0FF30D5E770B50025FE48FD
:104F400090F82404012801D0681E70BDFB48FFF7CB
:104F5000BBFF002858D1F9488478C07800EB0424BE
:104F600040F23511601A8C4227D008DCA4F580701D
:104F700007380DD0192827D01B283AD10FE0012877
:104F800014D0E02827D0A0F58070D53831D129E0A1
:104F9000EB48006840F00100E94908602AE0E84871
:104FA000006840F04000E649086023E0E4480068FB
:104FB00040F00200E24908601CE0E148006840F06F
:104FC0000400DF49086015E0DD48006840F0080093
:104FD000DB4908600EE0DA48006840F01000D8496C
:104FE000086007E0D648006840F02000D449086017
:104FF00000E000BF00BFD248007800F04F004F280B
:1050000002D10120CF490870CF480078401C06210A
:1050100090FBF1F201FB1200CB490870284694E79F
:1050200010B50020C44A92F82424012A26D1C24A8D
:105030009178D27802EB0121A1F5A062013A0DD05E
:10504000B1F5A06F0AD0C14A1278521C062392FB18
:10505000F3F403FB1422BD4B1A700EE0A1F5A0621D
:10506000013A06D1BA4A127842F08002B84B1A705F
:1050700003E0B74A1278B64B1A70012010BD024601
:105080005078107051701078B52804D1507862288B
:1050900001D1012070470020FCE770B504460D46A1
:1050A0004FF48460005B60B929462046FFF7E7FFB4
:1050B00008B9002070BD02214FF484600153002024
:1050C000F8E74FF48460015B005B401C82B24FF450
:1050D000846002536554005B062811D1201DFEF741
:1050E00009FA083081B240F222400153005BB0F56A
:1050F000846F05DD00214FF484600153481ED9E719
:105100004FF48460005B062806DB4FF48460015B8B
:10511000801C005B814201DA0020CBE700214FF4C4
:10512000846001530121001D0155821C21468348E2
:105130001DF014FB0020BDE710B5864800688649C5
:105140000968884200D110BD002400BF8348824A0C
:105150001268815C7848FFF7A0FF7F480088401CF8
:10516000C0F309007C490860641C734890F824046B
:10517000012800D107E0642C05DA764800687649FA
:1051800009688842E2D100BFFFF74AFFFFF7D5FE6A
:10519000694890F82404012808D140F22641664865
:1051A0001DF0F5FA0021644880F8241400BFCAE716
:1051B0002DE9F14F2DED0C8BADF5A26DDDF840051D
:1051C000851DFDF71BFA8146FDF716FA07464FF4D9
:1051D00090610EA81DF0DBFA302102A81DF0D7FA6D
:1051E0004FF4707138461DF0D2FA18210DF2F440D8
:1051F0001DF0CDFA30210DF598601DF0C8FA284653
:10520000FEF792F9B0EE40AAF0EE60AA05F10800B0
:10521000FEF770F9CDF8B804DDF8B80430B9002015
:105220000DF5A26DBDEC0C8BBDE8F88F95F80BB0B9
:10523000BBF1180F01DA584600E018208346BBF195
:10524000000F02D14FF0FF30EAE70024103554E19F
:105250009FED430B53EC102B51EC1A0B1DF055FB3B
:1052600041EC100BB0EE40DAF0EE60DA9FED3E0B51
:1052700053EC102B51EC1D0B1DF0A0FA41EC100B60
:10528000B0EE40CAF0EE60CA51EC1C0B1DF05BFCA6
:1052900004EB44010EAA02EB0111486095F814A03A
:1052A000687D04EB440102EB01110880BAF1020FA2
:1052B0000DD104EB44000EA901EB0010008800F5AD
:1052C000967004EB440102EB0111088060E0BAF132
:1052D000030F0ED104EB44000EA901EB001000886F
:1052E00000F5C87004EB44010EAA02EB011108801E
:1052F0004EE0BAF1060F0DD104EB44000EA901EB0C
:1053000000100088403004EB44010EAA02EB0111AA
:1053100008803DE0BAF1040F2AD104EB44000EA945
:1053200001EB0010008800F5FA7004EB44010EAAAE
:1053300002EB011108802BE0EC0F0020121400207A
:1053400060000020640000205D0000205C00002060
:10535000650000205400002058000020CC0B0020E5
:105360000000000000408F40000000000000E03F0F
:10537000BAF1050F0CD104EB44000EA901EB0010AB
:105380000088C03004EB44010EAA02EB0111088032
:1053900095F81E8018F0010F03D02846FEF7C4F8D8
:1053A00001E09FEDDC0BB0EE40BAF0EE60BA18F011
:1053B000020F04D005F10800FEF7B6F801E09FEDFA
:1053C000D50BB0EE409AF0EE609A05F11000FEF7B2
:1053D000A5F88DED010A01981DF0CEFB41EC180BEC
:1053E0009FEDCE0B53EC102B51EC190B1DF0D8FB9D
:1053F00005D19FEDC80BB0EE409AF0EE609A18F020
:10540000010F17D00F2004EB44010EAA02EB01118B
:10541000486218F0020F14D004EB44000EA901EB0F
:105420000010406A40F0100004EB440102EB01114F
:10543000486206E0002004EB44010EAA02EB0111D1
:10544000486204EB44000EA901EB001080ED02BBA2
:105450009FEDB40B53EC102B51EC190B1DF055FACA
:1054600041EC100B04EB44000EA901EB001080EDA1
:10547000060B9FEDAC0B53EC102B51EC180B1DF0F1
:1054800044FA41EC100B04EB44000EA901EB0010B0
:1054900080ED040BA87E00EB8000400004EB44018B
:1054A0000EAA02EB01114884C8F38000CDF80C0568
:1054B000C8F3C0000DF2F441085504EB44000EA9F6
:1054C00001EB001090F82110DDF80C0508B901205F
:1054D00000E00020014304EB44000EAA02EB0010A0
:1054E00080F8211005F11800FEF704F80DF5986119
:1054F00021F81400601C04B220355C45FFF6A8AE0C
:10550000ABF1010006B25FE0002459E0601C00EB43
:1055100040000EA901EB0010408C04EB44010EAAE0
:1055200002EB0111498C884248DD04EB440002EB98
:105530000011302202A81DF011F9621C02EB420298
:105540000EAB03EB021104EB440203EB021030221A
:105550001DF004F9611C01EB41010EAA02EB0110E0
:10556000302202A91DF0FAF80DF2F440005DCDF8EA
:10557000F0040DF2F44001190246601C105C087042
:105580001146601C08449DF8F01401700DF59860F8
:1055900000EB44000088CDF8BC040DF5986000EBEA
:1055A00044010246601C02EB40000088088011465E
:1055B000601C01EB4000BDF8BC140180601C04B20B
:1055C000B442A3DB701E06B2002E9DDCBBF1140FAB
:1055D00001DA584600E014208346002476E004EB0C
:1055E00044020EAB03EB021104EB440207EB021082
:1055F00030221DF0B3F8012004EB440107EB011148
:1056000081F8200000265CE004EB440007EB00106A
:10561000008806EB460139F8111088424FD106EB9D
:10562000460009EB40004088002812DD06EB4600EA
:1056300009EB400040880DF5986131F8141088425C
:1056400007DC002004EB440107EB011181F8200086
:1056500006E0012004EB440107EB011181F8200072
:1056600004EB440007EB001090ED061BB0EE410A7E
:10567000F0EE610A9FED271B53EC112B51EC100B40
:105680001DF08EFA1AD00DF2F440005D06EB4601D3
:1056900009EB41010979884201D0012000E0002096
:1056A00004EB440107EB011191F8211041EA40009D
:1056B00004EB440107EB011181F8210003E0701CA9
:1056C00006B2142EA0DB00BF601C04B25C4586DB72
:1056D00000241BE004EB440007EB0010008804EBFF
:1056E000440129F811000DF5986030F8140004EB1E
:1056F000440109EB410148800DF2F440005D04EBE8
:10570000440109EB41010871601C04B25C45E1DB16
:10571000012085E5000000000000000000000000FE
:105720000000E0BF7A00A7068B5BC83F01B5804947
:105730000098086000BF7E4800680028FBD108BDC3
:105740001CB501210220FBF7E7F930200090022070
:105750008DF8050000208DF8060001208DF8070067
:105760008DF8040069467348FAF738FF1021714834
:10577000FAF7B0FF20216F48FAF7AEFF1CBD1CB549
:105780004FF44070FAF732FE6FF00400FAF781FE32
:1057900001218803FBF71AFA01211020FBF7BCF95D
:1057A0000220009000208DF8050001208DF80400F3
:1057B00000208DF806008DF8070069465E48FAF76C
:1057C0000DFF02215C48FAF785FF012000900020C0
:1057D0008DF8050001208DF8040000208DF80600EA
:1057E0008DF8070069465448FAF7F8FE012152483F
:1057F000FAF770FF01210220FBF78EF94FF4805079
:10580000009000208DF8050001208DF80400002094
:105810008DF8060002208DF8070069464648FAF721
:10582000DDFE4FF480514448FAF754FF1CBDFAF7EF
:1058300034FDFFF7A4FF53214FF6FF700DF063FE18
:105840004FF4FA600DF0D6FEFFF77AFF0DF002FC80
:1058500000F08EF84FF416500EF07CF800F030F99E
:105860003648FBF788F8354840686422B0FBF2F10F
:10587000481EB0F1807F00D31BE0481E4FF0E022AD
:10588000506150170F22002807DA13071D0E2C4B0A
:1058900000F00F04241F1D5503E013071C0E294BB5
:1058A0001C5400BF00204FF0E022906107201061DF
:1058B00000BF4FF4E1300DF0B5FE532142F21070FD
:1058C0000DF072FD0DF0B0FD1FA0FCF733FD0520BB
:1058D000FFF72CFF01E000F029FDFCE71448006809
:1058E00020B113480068401E11490860704710B588
:1058F0000446102C03D110210E48FAF7F6FE102CA6
:1059000003D120210B48FAF7F0FE10BD10B517485F
:1059100000880A301549088008460088B0F57A7F6B
:1059200005DD1020FFF7E3FF00201049088010BDBF
:10593000A800002000040240001002409C18002033
:1059400018ED00E000E400E00D0A20537461727469
:10595000202D207062647220424D206170702021E1
:105960002121212121210D0A00000000A400002096
:1059700010B50020FE4908604FF6FF70FD49086031
:105980000020FD4908604FF6FF70FC4908600020C8
:10599000FB490870FB4908700DF0FCFA10BD2DE9B9
:1059A000F041F948FBF744FD0446F2480068A0F5D1
:1059B0007F41FF3906D1F54804604FF6FE70ED498E
:1059C00008601BE0F1480068844203D9EF48006892
:1059D000251A05E0ED4800684FF6FF71081A051911
:1059E000E3480068854201D9E1480560E148006864
:1059F000854201D2DF480560E4480460E449E04A9A
:105A0000127801EB02100CF098FEDD480078401C83
:105A1000142190FBF1F201FB1200D9490870DA4819
:105A2000FBF706FD0746A74201D93E1B03E04FF6F0
:105A3000FF70001BC619D0480068864201D9CE48C5
:105A40000660CE480068864201D2CC480660BDE8B8
:105A5000F081D0A0704730B5D3B0642102A81CF00B
:105A600096FE0EF0D1FF0446FFF7F3FF05462B46E6
:105A7000CDA2642102A800941DF0E4FA02A9CCA0F2
:105A8000FCF707FDFCF794FDFEF717FAFDF79FFD05
:105A900054213EA81CF07BFE3EA80FF093F87C2119
:105AA0001BA81CF074FE1BA80FF083F800203A908E
:105AB0003B903C903D903AA80EF074FF53B030BD3F
:105AC00010B50020BB4908604FF6FF70BA49086066
:105AD0000020BA4908604FF6FF70B94908600020FD
